:020000040800F2
:100000000028002069130008F9120008FF120008F8
:10001000051300080B13000811130008000000006E
:10002000000000000000000000000000171300089E
:1000300023130008000000002F1300083B130008E2
:10004000B1130008B1130008B1130008B113000880
:10005000B1130008B1130008B1130008B113000870
:10006000B1130008B1130008B1130008B113000860
:10007000B1130008B1130008B1130008B113000850
:10008000B1130008B1130008B1130008B113000840
:10009000B1130008B1130008B1130008B113000830
:1000A000B1130008B1130008B1130008B113000820
:1000B00049130008B113000800000000B113000844
:1000C000B11300080000000000000000B113000898
:1000D00000000000B1130008B11300080000000088
:1000E000B1130008B1130008B113000800000000AC
:1000F0000000000000000000000000000000000000
:0C01000000000000000000005FF808F1A3
:10010C0010B5054C237833B9044B13B10448AFF345
:10011C0000800123237010BD0C040020000000009F
:10012C00242A000808B5034B1BB103490348AFF35D
:10013C00008008BD0000000010040020242A0008E4
:10014C00034613F8012B002AFBD1181A013870470B
:10015C0080B483B000AF03463960FB71FA7901219A
:10016C003B6801FA03F31A403B6842FA03F3184662
:10017C000C37BD4680BC704780B500AF01224FF4F0
:10018C008071174801F01EFC01224FF400711448D5
:10019C0001F018FC01224FF48061114801F012FCAF
:1001AC0001224FF400610E4801F00CFC01224FF4C7
:1001BC0080510B4801F006FC01224FF40051084815
:1001CC0001F000FC01224FF48041054801F0FAFBDC
:1001DC0001224FF40041024801F0F4FB00BF80BD46
:1001EC00000C014080B582B000AF78607B68072BB3
:1001FC004AD801A252F823F0250200083302000865
:10020C00410200084F0200085D0200086B02000862
:10021C00790200088702000800224FF480711C4804
:10022C0001F0D0FB30E000224FF40071184801F0CF
:10023C00C9FB29E000224FF48061154801F0C2FB94
:10024C0022E000224FF40061114801F0BBFB1BE0DF
:10025C0000224FF480510E4801F0B4FB14E0002250
:10026C004FF400510A4801F0ADFB0DE000224FF4B1
:10027C008041074801F0A6FB06E000224FF4004144
:10028C00034801F09FFB00BF00BF0837BD4680BD8F
:10029C00000C014080B582B000AF78607B68072B02
:1002AC0000F2968301A252F823F000BFD902000895
:1002BC00B7030008950400087D0500085B060008DC
:1002CC003907000821080008FF080008A64B1B7816
:1002DC0000211846FFF73CFF0346DBB21A46042107
:1002EC00A24801F06FFBA04B1B7801211846FFF7C9
:1002FC002FFF0346DBB21A4608219C4801F062FB33
:10030C00994B1B7802211846FFF722FF0346DBB2FC
:10031C001A464FF48061954801F054FB924B1B78C0
:10032C0003211846FFF714FF0346DBB21A464FF4BD
:10033C0000618E4801F046FB8B4B1B78042118465C
:10034C00FFF706FF0346DBB21A464FF4805187488D
:10035C0001F038FB844B1B7805211846FFF7F8FE9B
:10036C000346DBB21A464FF40051804801F02AFBD9
:10037C007D4B1B7806211846FFF7EAFE0346DBB2DD
:10038C001A464FF48041794801F01CFB764B1B78E0
:10039C0007211846FFF7DCFE0346DBB21A464FF482
:1003AC000041724801F00EFB13E36F4B5B780021A8
:1003BC001846FFF7CDFE0346DBB21A4604216B4804
:1003CC0001F000FB684B5B7801211846FFF7C0FE7B
:1003DC000346DBB21A460821644801F0F3FA624B7B
:1003EC005B7802211846FFF7B3FE0346DBB21A46D0
:1003FC004FF480615D4801F0E5FA5B4B5B780321BB
:10040C001846FFF7A5FE0346DBB21A464FF400610F
:10041C00564801F0D7FA544B5B7804211846FFF785
:10042C0097FE0346DBB21A464FF480514F4801F059
:10043C00C9FA4D4B5B7805211846FFF789FE034638
:10044C00DBB21A464FF40051484801F0BBFA464B58
:10045C005B7806211846FFF77BFE0346DBB21A4693
:10046C004FF48041414801F0ADFA3F4B5B780721D6
:10047C001846FFF76DFE0346DBB21A464FF40041F7
:10048C003A4801F09FFAA4E2374B9B7800211846BA
:10049C00FFF75EFE0346DBB21A460421334801F037
:1004AC0091FA314B9B7801211846FFF751FE034618
:1004BC00DBB21A4608212D4801F084FA2A4B9B78AE
:1004CC0002211846FFF744FE0346DBB21A464FF4EE
:1004DC008061264801F076FA234B9B78032118465D
:1004EC00FFF736FE0346DBB21A464FF400611F4895
:1004FC0001F068FA1C4B9B7804211846FFF728FE84
:10050C000346DBB21A464FF48051184801F05AFAF0
:10051C00154B9B7805211846FFF71AFE0346DBB2F4
:10052C001A464FF40051114801F04CFA0E4B9B78CF
:10053C0006211846FFF70CFE0346DBB21A464FF4B1
:10054C0080410A4801F03EFA074B9B780721184678
:10055C00FFF7FEFD0346DBB21A464FF40041034899
:10056C0001F030FA35E200BF5C04002000080140C5
:10057C00A64BDB7800211846FFF7EAFD0346DBB2F9
:10058C001A460421A24801F01DFAA04BDB78012188
:10059C001846FFF7DDFD0346DBB21A4608219C48DE
:1005AC0001F010FA994BDB7802211846FFF7D0FDC9
:1005BC000346DBB21A464FF48061954801F002FA0B
:1005CC00924BDB7803211846FFF7C2FD0346DBB2E2
:1005DC001A464FF400618E4801F0F4F98B4BDB782E
:1005EC0004211846FFF7B4FD0346DBB21A464FF45C
:1005FC008051874801F0E6F9844BDB7805211846D9
:10060C00FFF7A6FD0346DBB21A464FF400518048B3
:10061C0001F0D8F97D4BDB7806211846FFF798FDE1
:10062C000346DBB21A464FF48041794801F0CAF90F
:10063C00764BDB7807211846FFF78AFD0346DBB2C1
:10064C001A464FF40041724801F0BCF9C1E16F4BFE
:10065C001B7900211846FFF77BFD0346DBB21A46D7
:10066C0004216B4801F0AEF9684B1B790121184647
:10067C00FFF76EFD0346DBB21A460821644801F011
:10068C00A1F9624B1B7902211846FFF761FD034665
:10069C00DBB21A464FF480615D4801F093F95B4B75
:1006AC001B7903211846FFF753FD0346DBB21A46AC
:1006BC004FF40061564801F085F9544B1B79042125
:1006CC001846FFF745FD0346DBB21A464FF480513E
:1006DC004F4801F077F94D4B1B7905211846FFF770
:1006EC0037FD0346DBB21A464FF40051484801F07F
:1006FC0069F9464B1B7906211846FFF729FD03467D
:10070C00DBB21A464FF48041414801F05BF93F4B94
:10071C001B7907211846FFF71BFD0346DBB21A466F
:10072C004FF400413A4801F04DF952E1374B5B79F7
:10073C0000211846FFF70CFD0346DBB21A460421D4
:10074C00334801F03FF9314B5B7901211846FFF733
:10075C00FFFC0346DBB21A4608212D4801F032F9A2
:10076C002A4B5B7902211846FFF7F2FC0346DBB2F9
:10077C001A464FF48061264801F024F9234B5B792B
:10078C0003211846FFF7E4FC0346DBB21A464FF48C
:10079C0000611F4801F016F91C4B5B7904211846C7
:1007AC00FFF7D6FC0346DBB21A464FF480511848CB
:1007BC0001F008F9154B5B7905211846FFF7C8FCC9
:1007CC000346DBB21A464FF40051114801F0FAF817
:1007DC000E4B5B7906211846FFF7BAFC0346DBB2D9
:1007EC001A464FF480410A4801F0ECF8074B5B794C
:1007FC0007211846FFF7ACFC0346DBB21A464FF450
:10080C000041034801F0DEF8E3E000BF5C04002087
:10081C0000080140714B9B7900211846FFF798FCAA
:10082C000346DBB21A4604216D4801F0CBF86B4B42
:10083C009B7901211846FFF78BFC0346DBB21A4665
:10084C000821674801F0BEF8644B9B7902211846D9
:10085C00FFF77EFC0346DBB21A464FF4806160481A
:10086C0001F0B0F85D4B9B7903211846FFF770FC43
:10087C000346DBB21A464FF40061594801F0A2F866
:10088C00564B9B7904211846FFF762FC0346DBB2FA
:10089C001A464FF48051524801F094F84F4B9B7913
:1008AC0005211846FFF754FC0346DBB21A464FF4F9
:1008BC0000514B4801F086F8484B9B7906211846AD
:1008CC00FFF746FC0346DBB21A464FF4804144481E
:1008DC0001F078F8414B9B7907211846FFF738FC5B
:1008EC000346DBB21A464FF400413D4801F06AF86A
:1008FC006FE03A4BDB7900211846FFF729FC0346E1
:10090C00DBB21A460421364801F05CF8334BDB7934
:10091C0001211846FFF71CFC0346DBB21A460821DE
:10092C002F4801F04FF82D4BDB7902211846FFF7C9
:10093C000FFC0346DBB21A464FF48061284801F0E5
:10094C0041F8264BDB7903211846FFF701FC0346DF
:10095C00DBB21A464FF40061214801F033F81F4B0B
:10096C00DB7904211846FFF7F3FB0346DBB21A468A
:10097C004FF480511A4801F025F8184BDB7905210A
:10098C001846FFF7E5FB0346DBB21A464FF400515D
:10099C00134801F017F8114BDB7906211846FFF7C5
:1009AC00D7FB0346DBB21A464FF480410C4801F0EA
:1009BC0009F80A4BDB7907211846FFF7C9FB0346F8
:1009CC00DBB21A464FF40041054800F0FBFF00E093
:1009DC0000BF00BF0837BD4680BD00BF5C040020CF
:1009EC000008014080B485B000AF0346FB71FB7971
:1009FC00BB600023FB600EE00B4ABB68DB001A44B3
:100A0C00FB6813441978094AFB6813440A461A70A8
:100A1C00FB680133FB60FB68072BEDDD00BF00BFFB
:100A2C001437BD4680BC7047000000205C040020D9
:100A3C0080B582B000AF00237B600DE0FFF79CFB1C
:100A4C007868FFF727FC7868FFF7CCFB012000F0F3
:100A5C000DFD7B6801337B607B68072BEEDD00BFEF
:100A6C0000BF0837BD4680BD80B584B000AF78604C
:100A7C007868FFF765FB0346FB60104B1B68012B86
:100A8C0018D10F4B1B681A467B6813441B78184609
:100A9C00FFF7A8FF0A4B1B680133FA6893FBF2F2CD
:100AAC00F96801FB02F29B1A054A13604FF47A7045
:100ABC0000F05AFB00BF1037BD4680BD4C0400202F
:100ACC002804002080B582B000AF78607B68032BCF
:100ADC0022D801A252F823F0F50A0008010B0008F5
:100AEC000D0B0008190B00080E4B1B68184600F084
:100AFC001DFA12E00B4B5B68184600F017FA0CE07D
:100B0C00084B9B68184600F011FA06E0054BDB68B1
:100B1C00184600F00BFA00E000BF00BF0837BD46D6
:100B2C0080BD00BF2C04002080B483B000AF78607F
:100B3C0039607B68184A82FB03129210DB17D31AB8
:100B4C00164A13607968144B83FB01239A10CB1758
:100B5C00D21A13469B0013445B00CA1A0F4B5A60FF
:100B6C003B680D4A82FB03129210DB17D31A0B4A17
:100B7C0093603968084B83FB01239A10CB17D21A68
:100B8C0013469B0013445B00CA1A044BDA6000BF87
:100B9C000C37BD4680BC7047676666662C04002027
:100BAC0080B586B000AF00F0FFFB00F0D7F800F086
:100BBC005DF900F00FF9644801F06EFB0C237B61CA
:100BCC0007233B610323FB604FF4967000F0A0FAFF
:100BDC004FF4FA7000F0B2FA0123BB605B4B7B6000
:100BEC00642000F0C1FA7868FFF73EFFFFF720FFA2
:100BFC00574B1B68012B23D11021564800F0FAFEED
:100C0C00FB680133FB60FB683B2B04DD0023FB60BE
:100C1C003B6901333B613B693B2B04DD00233B61AA
:100C2C007B6901337B617B69172B01DD00237B61C1
:100C3C0039697869FFF778FF4FF47A7000F068FA39
:100C4C00454B1B68012BCED1BB685A4203F0030302
:100C5C0002F0030258BF53420133BB60BB68013B37
:100C6C001846FFF72FFFBB68013B032B66D801A288
:100C7C0052F823F0910C0008BF0C0008ED0C000892
:100C8C001B0D000800224021324800F09BFE01227F
:100C9C008021304800F096FE01224FF480712D48DF
:100CAC0000F090FE01224FF400712A4800F08AFEF9
:100CBC0044E001224021274800F084FE00228021DC
:100CCC00244800F07FFE01224FF48071214800F08F
:100CDC0079FE01224FF400711E4800F073FE2DE0E6
:100CEC00012240211B4800F06DFE01228021194891
:100CFC0000F068FE00224FF48071164800F062FE8E
:100D0C0001224FF40071134800F05CFE16E0012242
:100D1C004021104800F056FE012280210D4800F0C1
:100D2C0051FE01224FF480710A4800F04BFE002264
:100D3C004FF40071074800F045FE00BF4FF4FA7005
:100D4C0000F0FCF94FE700BF640400203C2A0008C7
:100D5C003C040020000801404404002080B590B001
:100D6C0000AF07F1180328220021184601F04CFEB1
:100D7C003B1D00221A605A609A60DA601A610223E5
:100D8C00BB610123BB621023FB6200237B6307F171
:100D9C001803184600F048FE0346002B01D000F063
:100DAC00B1F90F237B600023BB600023FB600023A1
:100DBC003B6100237B613B1D0021184601F0B4F818
:100DCC000346002B01D000F09DF900BF4037BD4613
:100DDC0080BD000080B586B000AF07F1080300228B
:100DEC001A605A609A60DA603B4600221A605A60B8
:100DFC001D4B4FF080421A601B4B41F63F725A60FC
:100E0C00194B00229A60184B0922DA60164B00220B
:100E1C001A61154B00229A61134801F0EDF9034653
:100E2C00002B01D000F06EF94FF48053BB6007F13A
:100E3C00080319460C4801F083FB0346002B01D034
:100E4C0000F060F900233B6000237B603B461946B1
:100E5C00054801F04BFD0346002B01D000F052F980
:100E6C0000BF1837BD4680BD6404002080B586B035
:100E7C0000AF07F1080300221A605A609A60DA602A
:100E8C00224B9B69214A43F0040393611F4B9B69DE
:100E9C0003F004037B607B681C4B9B691B4A43F08B
:100EAC0008039361194B9B6903F008033B603B6893
:100EBC0000224FF6FC71164800F084FD00224FF61C
:100ECC007F71144800F07EFD4FF6FC73BB6001236C
:100EDC00FB6000233B6102237B6107F10803194689
:100EEC000B4800F0F5FB4FF67F73BB600123FB60F2
:100EFC0000233B6102237B6107F108031946054877
:100F0C0000F0E6FB00BF1837BD4680BD0010024064
:100F1C0000080140000C014080B582B000AF786041
:100F2C0000F038F900BF0837BD4680BD80B582B0EF
:100F3C0000AF78607B68002B14D07B68022B11D03B
:100F4C007B68032B0ED07B68052B0BD07B68062BA4
:100F5C0008D07B68072B05D07B68082B02D07B68F8
:100F6C00092B05D100220121654800F02BFD04E07E
:100F7C0001220121624800F025FD7B68002B14D072
:100F8C007B68012B11D07B68022B0ED07B68032B66
:100F9C000BD07B68042B08D07B68072B05D07B68B3
:100FAC00082B02D07B68092B05D100220221544862
:100FBC0000F008FD04E001220221514800F002FD7E
:100FCC007B68002B17D07B68012B14D07B68032B1C
:100FDC0011D07B68042B0ED07B68052B0BD07B6863
:100FEC00062B08D07B68072B05D07B68082B02D01A
:100FFC007B68092B05D100220421414800F0E2FC5A
:10100C0004E0012204213E4800F0DCFC7B68002B4C
:10101C0011D07B68022B0ED07B68032B0BD07B6826
:10102C00052B08D07B68062B05D07B68082B02D0DB
:10103C007B68092B05D100220821314800F0C2FC45
:10104C0004E0012208212E4800F0BCFC7B68002B38
:10105C0008D07B68022B05D07B68062B02D07B68FE
:10106C00082B05D100221021254800F0ABFC04E030
:10107C0001221021224800F0A5FC7B68002B0ED029
:10108C007B68042B0BD07B68052B08D07B68062B68
:10109C0005D07B68082B02D07B68092B05D1002278
:1010AC002021174800F08EFC04E001222021144876
:1010BC0000F088FC7B68022B11D07B68032B0ED0D0
:1010CC007B68042B0BD07B68052B08D07B68062B28
:1010DC0005D07B68082B02D07B68092B05D1002238
:1010EC004021074800F06EFC05E001224021044835
:1010FC0000F068FC00BF00BF0837BD4680BD00BFD4
:10110C00000C014080B400AF72B600BFFEE70000D7
:10111C0080B483B000AF78600A227B6893FBF2F353
:10112C00044A1360044B00221A6000BF0C37BD4602
:10113C0080BC7047400400203C04002080B483B085
:10114C0000AF78600A227B6893FBF2F3044A1360C9
:10115C00044B00221A6000BF0C37BD4680BC7047A0
:10116C00480400204404002080B483B000AF7860B1
:10117C000A227B6893FBF2F3044A1360044B0022AF
:10118C001A6000BF0C37BD4680BC7047500400206D
:10119C004C04002080B400AF214B1B68002B0BDDEE
:1011AC001F4B1B68013B1E4A13601D4B1B68002B19
:1011BC0002DC1C4B01221A601B4B1B68002B0BDD45
:1011CC00194B1B68013B184A1360174B1B68002B0B
:1011DC0002DC164B01221A60154B1B68002B0BDD31
:1011EC00134B1B68013B124A1360114B1B68002BFD
:1011FC0002DC104B01221A600F4B1B68002B0BDD1D
:10120C000D4B1B68013B0C4A13600B4B1B68002BEE
:10121C0002DC0A4B01221A6000BFBD4680BC70473D
:10122C00400400203C04002048040020440400201A
:10123C00500400204C0400205804002054040020CA
:10124C0080B485B000AF154B9B69144A43F0010381
:10125C009361124B9B6903F00103BB60BB680F4B9E
:10126C00DB690E4A43F08053D3610C4BDB6903F00E
:10127C0080537B607B680A4B5B68FB60FB6823F0E8
:10128C00E063FB60FB6843F08063FB60044AFB682F
:10129C00536000BF1437BD4680BC7047001002403D
:1012AC000000014080B584B000AF78607B681B689B
:1012BC00B3F1804F13D10C4BDB690B4A43F00103A4
:1012CC00D361094BDB6903F00103FB60FB6800226F
:1012DC0000211C2000F0C5F91C2000F0DEF900BF35
:1012EC001037BD4680BD00BF0010024080B400AF77
:1012FC00FEE780B400AFFEE780B400AFFEE780B439
:10130C0000AFFEE780B400AFFEE780B400AF00BFD3
:10131C00BD4680BC704780B400AF00BFBD4680BCEA
:10132C00704780B400AF00BFBD4680BC704780B52D
:10133C0000AF00F07FF800BF80BD000080B500AFAB
:10134C00024800F0F5FF00BF80BD00BF6404002020
:10135C0080B400AF00BFBD4680BC70470C480D493F
:10136C000D4A002302E0D458C4500433C4188C42F4
:10137C00F9D30A4A0A4C002301E013600432A2425A
:10138C00FBD3FFF7E5FF01F01BFBFFF709FC7047F0
:10139C00000000200C040020882A00080C04002007
:1013AC00B0040020FEE7000080B500AF084B1B68BE
:1013BC00074A43F010031360032000F047F90F2095
:1013CC0000F008F8FFF73CFF0023184680BD00BF73
:1013DC000020024080B582B000AF7860124B1A68D2
:1013EC00124B1B7819464FF47A73B3FBF1F3B2FB33
:1013FC00F3F3184600F05FF90346002B01D00123EC
:10140C000EE07B680F2B0AD8002279684FF0FF3072
:10141C0000F027F9064A7B681360002300E00123E3
:10142C0018460837BD4680BD000400200804002083
:10143C000404002080B400AF054B1B781A46054B02
:10144C001B681344034A136000BFBD4680BC704741
:10145C0008040020AC04002080B400AF024B1B68D1
:10146C001846BD4680BC7047AC04002080B584B0E3
:10147C0000AF7860FFF7F0FFB8607B68FB60FB683B
:10148C00B3F1FF3F05D00A4B1B781A46FB68134497
:10149C00FB6000BFFFF7E0FF0246BB68D31AFA6897
:1014AC009A42F7D800BF00BF1037BD4680BD00BFC1
:1014BC000804002080B485B000AF78607B6803F02E
:1014CC000703FB600C4BDB68BB60BA684FF6FF038D
:1014DC001340BB60FB681A02BB68134343F0BF6345
:1014EC0043F40033BB60044ABB68D36000BF1437BD
:1014FC00BD4680BC704700BF00ED00E080B400AF7B
:10150C00044BDB681B0A03F007031846BD4680BC7E
:10151C00704700BF00ED00E080B483B000AF03461D
:10152C00FB7197F90730002B0BDBFB7903F01F02E3
:10153C00064997F907305B09012000FA02F241F8DD
:10154C00232000BF0C37BD4680BC704700E100E093
:10155C0080B483B000AF03463960FB7197F9073054
:10156C00002B0ADB3B68DAB20C4997F90730120101
:10157C00D2B20B4483F800230AE03B68DAB2084984
:10158C00FB7903F00F03043B1201D2B20B441A7621
:10159C0000BF0C37BD4680BC704700BF00E100E0C7
:1015AC0000ED00E080B489B000AFF860B9607A60FB
:1015BC00FB6803F00703FB61FB69C3F10703042B12
:1015CC0028BF0423BB61FB690433062B02D9FB69DA
:1015DC00033B00E000237B614FF0FF32BB6902FA52
:1015EC0003F3DA43BB681A407B699A404FF0FF3132
:1015FC007B6901FA03F3D9437B680B40134318460C
:10160C002437BD4680BC704780B582B000AF78608F
:10161C007B68013BB3F1807F01D301230FE00A4AC1
:10162C007B68013B53600F214FF0FF30FFF790FFB9
:10163C00054B00229A60044B07221A6000231846BF
:10164C000837BD4680BD00BF10E000E080B582B019
:10165C0000AF78607868FFF72DFF00BF0837BD46F4
:10166C0080BD80B586B000AF0346B9607A60FB736D
:10167C0000237B61FFF742FF78617A68B96878696B
:10168C00FFF790FF024697F90F3011461846FFF707
:10169C005FFF00BF1837BD4680BD80B582B000AF7C
:1016AC000346FB7197F907301846FFF735FF00BF6B
:1016BC000837BD4680BD80B582B000AF78607868D1
:1016CC00FFF7A2FF034618460837BD4680BD000051
:1016DC0080B48BB000AF7860396000237B6200234C
:1016EC003B6248E101227B6A02FA03F3FB613B682F
:1016FC001B68FA691340BB61BA69FB699A4240F0F6
:10170C0037813B685B68A34A93425ED0A14A9342FF
:10171C0075D8A14A934258D09F4A93426FD89F4A9A
:10172C00934252D09D4A934269D89D4A93424CD0E1
:10173C009B4A934263D89B4A934246D0994A934220
:10174C005DD8122B2AD8122B59D801A252F823F0AB
:10175C00D7170008B1170008C317000805180008B0
:10176C000B1800080B1800080B1800080B180008C1
:10177C000B1800080B1800080B1800080B180008B1
:10178C000B1800080B1800080B1800080B180008A1
:10179C000B180008B9170008CD170008824A9342AD
:1017AC0013D02CE03B68DB683B6229E03B68DB68CC
:1017BC0004333B6224E03B68DB6808333B621FE088
:1017CC003B68DB680C333B621AE03B689B68002B80
:1017DC0002D104233B6213E03B689B68012B05D1CB
:1017EC0008233B627B68FA691A6109E008233B62B3
:1017FC007B68FA695A6103E000233B6200E000BF9A
:10180C00BB69FF2B01D87B6801E07B6804337B61EB
:10181C00BB69FF2B02D87B6A9B0002E07B6A083B0A
:10182C009B003B617B691A680F213B6901FA03F34A
:10183C00DB431A40396A3B6901FA03F31A437B69AB
:10184C001A603B685B6803F08053002B00F09080BB
:10185C00564B9B69554A43F001039361534B9B696B
:10186C0003F00103BB60BB68514A7B6A9B080233DF
:10187C0052F82330FB607B6A03F003039B000F22BA
:10188C0002FA03F3DB43FA681340FB607B68494AB6
:10189C0093420DD07B68484A934207D07B68474AF5
:1018AC00934201D1022304E0032302E0012300E070
:1018BC0000237A6A02F0030292009340FA68134301
:1018CC00FB603B497B6A9B080233FA6841F8232092
:1018DC003B685B6803F48033002B06D0384B1A68E6
:1018EC003749BB6913430B6006E0354B1A68BB697B
:1018FC00DB43334913400B603B685B6803F40033F4
:10190C00002B06D02E4B5A682D49BB6913434B60F4
:10191C0006E02B4B5A68BB69DB43294913404B60EB
:10192C003B685B6803F48013002B06D0244B9A6849
:10193C002349BB6913438B6006E0214B9A68BB6952
:10194C00DB431F4913408B603B685B6803F4001357
:10195C00002B06D01A4BDA681949BB691343CB60CC
:10196C0006E0174BDA68BB69DB4315491340CB60C3
:10197C007B6A01337B623B681A687B6A22FA03F349
:10198C00002B7FF4AFAE00BF00BF2C37BD4680BC30
:10199C00704700BF00003210000031100000221010
:1019AC000000211000001210000011100010024065
:1019BC000000014000080140000C014000100140F3
:1019CC000004014080B483B000AF78600B467B808C
:1019DC0013467B707B78002B03D07A887B681A6166
:1019EC0003E07B881A047B681A6100BF0C37BD4684
:1019FC0080BC704780B485B000AF78600B467B80AC
:101A0C007B68DB68FB607A88FB6813401A04FB6810
:101A1C00D9437B880B401A437B681A6100BF14378B
:101A2C00BD4680BC7047000080B586B000AF7860C2
:101A3C007B68002B01D101236CE27B681B6803F0EF
:101A4C000103002B00F08780924B5B6803F00C03C2
:101A5C00042B0CD08F4B5B6803F00C03082B12D1BA
:101A6C008C4B5B6803F48033B3F5803F0BD1894B0F
:101A7C001B6803F40033002B6CD07B685B68002B75
:101A8C0068D1012346E27B685B68B3F5803F06D1E1
:101A9C00804B1B687F4A43F4803313602EE07B68D5
:101AAC005B68002B0CD17B4B1B687A4A23F4803388
:101ABC001360784B1B68774A23F4802313601DE076
:101ACC007B685B68B3F5A02F0CD1724B1B68714A15
:101ADC0043F4802313606F4B1B686E4A43F48033CE
:101AEC0013600BE06B4B1B686A4A23F48033136062
:101AFC00684B1B68674A23F4802313607B685B6820
:101B0C00002B13D0FFF7A8FC386108E0FFF7A4FC0A
:101B1C0002463B69D31A642B01D90323FAE15D4BCE
:101B2C001B6803F40033002BF0D014E0FFF794FC97
:101B3C00386108E0FFF790FC02463B69D31A642B2E
:101B4C0001D90323E6E1534B1B6803F40033002B4C
:101B5C00F0D100E000BF7B681B6803F00203002B90
:101B6C0063D04C4B5B6803F00C03002B0BD0494B40
:101B7C005B6803F00C03082B1CD1464B5B6803F429
:101B8C008033002B16D1434B1B6803F00203002B50
:101B9C0005D07B681B69012B01D00123BAE13D4BB9
:101BAC001B6823F0F8027B685B69DB00394913433F
:101BBC000B603AE07B681B69002B20D0364B01226E
:101BCC001A60FFF749FC386108E0FFF745FC024654
:101BDC003B69D31A022B01D903239BE12D4B1B68C4
:101BEC0003F00203002BF0D02A4B1B6823F0F80201
:101BFC007B685B69DB00274913430B6015E0264BC0
:101C0C0000221A60FFF728FC386108E0FFF724FC7B
:101C1C0002463B69D31A022B01D903237AE11D4BEF
:101C2C001B6803F00203002BF0D17B681B6803F0E8
:101C3C000803002B3AD07B689B69002B19D0174BFB
:101C4C0001221A60FFF708FC386108E0FFF704FC7A
:101C5C0002463B69D31A022B01D903235AE10D4BDF
:101C6C005B6A03F00203002BF0D0012000F0A6FA0F
:101C7C001CE00A4B00221A60FFF7EEFB38610FE004
:101C8C00FFF7EAFB02463B69D31A022B08D9032360
:101C9C0040E100BF0010024000004242800442427A
:101CAC009E4B5B6A03F00203002BE9D17B681B6837
:101CBC0003F00403002B00F0A6800023FB75974B68
:101CCC00DB6903F08053002B0DD1944BDB69934AF5
:101CDC0043F08053D361914BDB6903F08053BB60BD
:101CEC00BB680123FB758E4B1B6803F48073002BC0
:101CFC0018D18B4B1B688A4A43F480731360FFF72F
:101D0C00ABFB386108E0FFF7A7FB02463B69D31A2F
:101D1C00642B01D90323FDE0814B1B6803F4807312
:101D2C00002BF0D07B68DB68012B06D17B4B1B6A48
:101D3C007A4A43F0010313622DE07B68DB68002BC9
:101D4C000CD1764B1B6A754A23F001031362734B5B
:101D5C001B6A724A23F0040313621CE07B68DB6885
:101D6C00052B0CD16D4B1B6A6C4A43F004031362B8
:101D7C006A4B1B6A694A43F0010313620BE0674B21
:101D8C001B6A664A23F001031362644B1B6A634AA5
:101D9C0023F0040313627B68DB68002B15D0FFF77C
:101DAC005BFB38610AE0FFF757FB02463B69D31A2D
:101DBC0041F28832934201D90323ABE0574B1B6AA3
:101DCC0003F00203002BEED014E0FFF745FB386163
:101DDC000AE0FFF741FB02463B69D31A41F2883215
:101DEC00934201D9032395E04C4B1B6A03F0020389
:101DFC00002BEED1FB7D012B05D1484BDB69474A0B
:101E0C0023F08053D3617B68DB69002B00F0818069
:101E1C00424B5B6803F00C03082B61D07B68DB69D9
:101E2C00022B46D13F4B00221A60FFF715FB38619D
:101E3C0008E0FFF711FB02463B69D31A022B01D9CC
:101E4C00032367E0354B1B6803F00073002BF0D1C4
:101E5C007B681B6AB3F5803F08D1304B5B6823F479
:101E6C0000327B689B682D4913434B602B4B5B689E
:101E7C0023F474127B68196A7B685B6A0B432749ED
:101E8C0013434B60274B01221A60FFF7E5FA3861C8
:101E9C0008E0FFF7E1FA02463B69D31A022B01D99D
:101EAC00032337E01D4B1B6803F00073002BF0D0AD
:101EBC002FE01C4B00221A60FFF7CEFA386108E0C5
:101ECC00FFF7CAFA02463B69D31A022B01D9032346
:101EDC0020E0124B1B6803F00073002BF0D118E0CC
:101EEC007B68DB69012B01D1012313E00B4B5B6891
:101EFC00FB60FB6803F480327B681B6A9A4206D154
:101F0C00FB6803F470127B685B6A9A4201D0012370
:101F1C0000E0002318461837BD4680BD0010024073
:101F2C00007000406000424280B584B000AF786021
:101F3C0039607B68002B01D10123D0E06A4B1B6810
:101F4C0003F007033A689A4210D9674B1B6823F0D9
:101F5C00070265493B6813430B60634B1B6803F036
:101F6C0007033A689A4201D00123B8E07B681B68EA
:101F7C0003F00203002B20D07B681B6803F00403E2
:101F8C00002B05D0594B5B68584A43F4E06353600F
:101F9C007B681B6803F00803002B05D0534B5B6870
:101FAC00524A43F460535360504B5B6823F0F00289
:101FBC007B689B684D4913434B607B681B6803F03F
:101FCC000103002B40D07B685B68012B07D1474B8A
:101FDC001B6803F40033002B15D101237FE07B68D1
:101FEC005B68022B07D1414B1B6803F00073002B7D
:101FFC0009D1012373E03D4B1B6803F00203002B56
:10200C0001D101236BE0394B5B6823F003027B6841
:10201C005B68364913434B60FFF71EFAF8600AE021
:10202C00FFF71AFA0246FB68D31A41F28832934240
:10203C0001D9032353E02D4B5B6803F00C027B6842
:10204C005B689B009A42EBD1274B1B6803F007039C
:10205C003A689A4210D2244B1B6823F0070222499B
:10206C003B6813430B60204B1B6803F007033A6873
:10207C009A4201D0012332E07B681B6803F0040311
:10208C00002B08D0194B5B6823F4E0627B68DB689B
:10209C00164913434B607B681B6803F00803002B45
:1020AC0009D0124B5B6823F460527B681B69DB0020
:1020BC000E4913434B6000F021F802460B4B5B6852
:1020CC001B0903F00F030A49CB5C22FA03F3094AFC
:1020DC001360094B1B681846FFF77CF90023184660
:1020EC001037BD4680BD00BF0020024000100240EA
:1020FC00702A0008000400200404002090B48AB068
:10210C0000AF2A4B3C1D0FCB84E80F0040F201239B
:10211C003B800023FB610023BB6100237B62002317
:10212C007B6100233B62224B5B68FB61FB6903F024
:10213C000C03042B02D0082B03D02DE01D4B3B626B
:10214C002DE0FB699B0C03F00F0307F128021344ED
:10215C0013F8243C7B61FB6903F48033002B13D010
:10216C00134B5B685B0C03F0010307F1280213446B
:10217C0013F8283CBB617B690E4A02FB03F2BB6976
:10218C00B2FBF3F37B6204E07B690B4A02FB03F3C3
:10219C007B627B6A3B6202E0064B3B6200BF3B6AA0
:1021AC0018462837BD4690BC704700BF602A00080F
:1021BC000010024000127A0000093D0080B485B086
:1021CC0000AF78600A4B1B680A4AA2FB03235B0A28
:1021DC007A6802FB03F3FB6000BFFB685A1EFA60CF
:1021EC00002BF9D100BF00BF1437BD4680BC70472F
:1021FC0000040020D34D621080B582B000AF78602F
:10220C007B68002B01D1012341E07B6893F83D30C2
:10221C00DBB2002B06D17B68002283F83C20786867
:10222C00FFF740F87B68022283F83D207B681A6830
:10223C007B6804331946104600F06AFA7B68012269
:10224C0083F846207B68012283F83E207B680122BC
:10225C0083F83F207B68012283F840207B680122B1
:10226C0083F841207B68012283F842207B6801229D
:10227C0083F843207B68012283F844207B68012289
:10228C0083F845207B68012283F83D200023184603
:10229C000837BD4680BD000080B485B000AF7860C3
:1022AC007B6893F83D30DBB2012B01D0012335E084
:1022BC007B68022283F83D207B681B68DA687B68A8
:1022CC001B6842F00102DA607B681B68164A934275
:1022DC0009D07B681B68B3F1804F04D07B681B6806
:1022EC00124A934211D17B681B689B6803F0070369
:1022FC00FB60FB68062B10D07B681B681A687B6838
:10230C001B6842F001021A6007E07B681B681A68C0
:10231C007B681B6842F001021A60002318461437D0
:10232C00BD4680BC704700BF002C0140000400403B
:10233C0080B582B000AF78607B681B681B6903F0C6
:10234C000203022B22D17B681B68DB6803F00203BB
:10235C00022B1BD17B681B686FF002021A617B6831
:10236C0001221A777B681B689B6903F00303002B1F
:10237C0003D0786800F0B1F905E0786800F0A4F9B2
:10238C00786800F0B3F97B6800221A777B681B68C9
:10239C001B6903F00403042B22D17B681B68DB68E8
:1023AC0003F00403042B1BD17B681B686FF0040241
:1023BC001A617B6802221A777B681B689B6903F49D
:1023CC004073002B03D0786800F087F905E078683B
:1023DC0000F07AF9786800F089F97B6800221A77A6
:1023EC007B681B681B6903F00803082B22D17B68F0
:1023FC001B68DB6803F00803082B1BD17B681B6888
:10240C006FF008021A617B6804221A777B681B68DC
:10241C00DB6903F00303002B03D0786800F05DF94F
:10242C0005E0786800F050F9786800F05FF97B6897
:10243C0000221A777B681B681B6903F01003102BB2
:10244C0022D17B681B68DB6803F01003102B1BD1B7
:10245C007B681B686FF010021A617B6808221A7780
:10246C007B681B68DB6903F44073002B03D078682E
:10247C0000F033F905E0786800F026F9786800F090
:10248C0035F97B6800221A777B681B681B6903F09F
:10249C000103012B0ED17B681B68DB6803F0010381
:1024AC00012B07D17B681B686FF001021A617868F9
:1024BC00FEF732FD7B681B681B6903F08003802BE1
:1024CC000ED17B681B68DB6803F08003802B07D17F
:1024DC007B681B686FF080021A61786800F067FAFD
:1024EC007B681B681B6903F04003402B0ED17B6893
:1024FC001B68DB6803F04003402B07D17B681B682B
:10250C006FF040021A61786800F0F9F87B681B687C
:10251C001B6903F02003202B0ED17B681B68DB6842
:10252C0003F02003202B07D17B681B686FF020027F
:10253C001A61786800F032FA00BF0837BD4680BDDA
:10254C0080B584B000AF786039607B6893F83C301C
:10255C00012B01D10223B3E07B68012283F83C20DC
:10256C007B68022283F83D207B681B689B68FB60BC
:10257C00FB6823F07703FB60FB6823F47F43FB606D
:10258C007B681B68FA689A603B681B68B3F5005F50
:10259C003ED0B3F5005F00F28780B3F5805F00F0AA
:1025AC008580B3F5805F7FD8702B1AD0702B7BD8C9
:1025BC00602B50D0602B77D8502B3CD0502B73D83D
:1025CC00402B58D0402B6FD8302B64D0302B6BD88D
:1025DC00202B60D0202B67D8002B5CD0102B5AD02E
:1025EC0062E07B6818683B6899683B685A683B688E
:1025FC00DB6800F05CF97B681B689B68FB60FB6820
:10260C0043F07703FB607B681B68FA689A604EE0C6
:10261C007B6818683B6899683B685A683B68DB685C
:10262C0000F045F97B681B689A687B681B6842F46C
:10263C0080429A603BE07B6818683B6859683B684D
:10264C00DB681A4600F0BCF87B681B685021184602
:10265C0000F013F92BE07B6818683B6859683B68FD
:10266C00DB681A4600F0DAF87B681B6860211846B4
:10267C0000F003F91BE07B6818683B6859683B68FD
:10268C00DB681A4600F09CF87B681B6840211846F2
:10269C0000F0F3F80BE07B681A683B681B6819467E
:1026AC00104600F0EAF802E000BF00E000BF7B68D3
:1026BC00012283F83D207B68002283F83C20002314
:1026CC0018461037BD4680BD80B483B000AF78602B
:1026DC0000BF0C37BD4680BC704780B483B000AFE0
:1026EC00786000BF0C37BD4680BC704780B483B0A7
:1026FC0000AF786000BF0C37BD4680BC704780B41B
:10270C0083B000AF786000BF0C37BD4680BC70470B
:10271C0080B485B000AF786039607B681B68FB6063
:10272C007B68254A934207D07B68B3F1804F03D076
:10273C007B68224A934208D1FB6823F07003FB604C
:10274C003B685B68FA681343FB607B681A4A9342E8
:10275C0007D07B68B3F1804F03D07B68174A934254
:10276C0008D1FB6823F44073FB603B68DB68FA68B4
:10277C001343FB60FB6823F080023B685B691343E7
:10278C00FB607B68FA681A603B689A687B68DA625F
:10279C003B681A687B689A627B68074A934203D14C
:1027AC003B681A697B681A637B6801225A6100BF17
:1027BC001437BD4680BC7047002C0140000400401B
:1027CC0080B487B000AFF860B9607A60FB681B6AB0
:1027DC007B61FB681B6A23F00102FB681A62FB68D1
:1027EC009B693B613B6923F0F0033B617B681B01F8
:1027FC003A6913433B617B6923F00A037B617A6975
:10280C00BB6813437B61FB683A699A61FB687A6920
:10281C001A6200BF1C37BD4680BC704780B487B0BD
:10282C0000AFF860B9607A60FB681B6A23F0100295
:10283C00FB681A62FB689B697B61FB681B6A3B61E6
:10284C007B6923F470437B617B681B037A691343B8
:10285C007B613B6923F0A0033B61BB681B013A69B8
:10286C0013433B61FB687A699A61FB683A691A62A7
:10287C0000BF1C37BD4680BC704780B485B000AF2C
:10288C00786039607B689B68FB60FB6823F07003A1
:10289C00FB603A68FB68134343F00703FB607B68FB
:1028AC00FA689A6000BF1437BD4680BC704780B48C
:1028BC0087B000AFF860B9607A603B60FB689B68DA
:1028CC007B617B6923F47F437B613B681A027B68E5
:1028DC001A43BB6813437A6913437B61FB687A69BB
:1028EC009A6000BF1C37BD4680BC704780B485B071
:1028FC0000AF786039607B6893F83C30012B01D1D4
:10290C00022341E07B68012283F83C207B68022291
:10291C0083F83D207B681B685B68FB607B681B68E9
:10292C009B68BB60FB6823F07003FB603B681B6813
:10293C00FA681343FB607B681B68FA685A607B6813
:10294C001B68144A934209D07B681B68B3F1804F13
:10295C0004D07B681B68104A93420CD1BB6823F0EF
:10296C008003BB603B685B68BA681343BB607B68E1
:10297C001B68BA689A607B68012283F83D207B68EB
:10298C00002283F83C20002318461437BD4680BC37
:10299C00704700BF002C01400004004080B483B09D
:1029AC0000AF786000BF0C37BD4680BC704780B468
:1029BC0083B000AF786000BF0C37BD4680BC704759
:1029CC0070B500260C4D0D4C641BA410A64209D109
:1029DC0000F022F800260A4D0A4C641BA410A642F3
:1029EC0005D170BD55F8043B98470136EEE755F814
:1029FC00043B98470136F2E7802A0008802A000839
:102A0C00802A0008842A000803460244934200D11D
:102A1C00704703F8011BF9E7F8B500BFF8BC08BC18
:102A2C009E467047F8B500BFF8BC08BC9E46704780
:102A3C0049742773206E6F7420746F6F20676F6FEB
:102A4C00642C20627574207374696C6C2062652030
:102A5C006F6B210002030405060708090A0B0C0D15
:102A6C000E0F101000000000000000000102030413
:042A7C000607080938
:042A80003101000818
:042A84000D01000838
:102A8800000000000000000000000000000000003E
:102A9800000000000000000000000000000000002E
:102AA800000000000000000000000000000000001E
:102AB800000000000000000000000000000000000E
:102AC80000000000000000000000000000000000FE
:102AD80000000000000000000000000000000000EE
:102AE80000000000000000000000000000000000DE
:102AF80000000000000000000000000000000000CE
:102B080000000000000000000000000000000000BD
:102B180000000000000000000000000000000000AD
:102B2800000000000000000000000000000000009D
:102B3800000000000000000000000000000000008D
:102B4800000000000000000000000000000000007D
:102B5800000000000000000000000000000000006D
:102B6800000000000000000000000000000000005D
:102B7800000000000000000000000000000000004D
:102B88000000000000000000183C3C181800180065
:102B9800363600000000000036367F367F363600B5
:102BA8000C3E031E301F0C00006333180C666300D4
:102BB8001C361C6E3B336E00060603000000000046
:102BC800180C0606060C1800060C1818180C060037
:102BD80000663CFF3C660000000C0C3F0C0C00003B
:102BE80000000000000C0C060000003F0000000080
:102BF80000000000000C0C006030180C06030100F7
:102C08003E63737B6F673E000C0E0C0C0C0C3F0090
:102C18001E33301C06333F001E33301C30331E0079
:102C2800383C36337F3078003F031F3030331E0086
:102C38001C06031F33331E003F3330180C0C0C00E6
:102C48001E33331E33331E001E33333E30180E003E
:102C5800000C0C00000C0C00000C0C00000C0C0606
:102C6800180C0603060C180000003F00003F000087
:102C7800060C1830180C06001E3330180C000C0017
:102C88003E637B7B7B031E000C1E33333F333300D4
:102C98003F66663E66663F003C66030303663C008B
:102CA8001F36666666361F007F46161E16467F006C
:102CB8007F46161E16060F003C66030373667C00EB
:102CC8003333333F333333001E0C0C0C0C0C1E0013
:102CD8007830303033331E006766361E366667003C
:102CE8000F06060646667F0063777F7F6B63630087
:102CF80063676F7B736363001C36636363361C0012
:102D08003F66663E06060F001E3333333B1E38000F
:102D18003F66663E366667001E33070E38331E0070
:102D28003F2D0C0C0C0C1E003333333333333F0070
:102D380033333333331E0C006363636B7F77630075
:102D48006363361C1C3663003333331E0C0C1E00C1
:102D58007F6331184C667F001E06060606061E00B5
:102D680003060C18306040001E18181818181E00AA
:102D7800081C36630000000000000000000000FF8F
:102D88000C0C18000000000000001E303E336E00DE
:102D98000706063E66663B0000001E3303331E002E
:102DA8003830303E33336E0000001E333F031E00C0
:102DB8001C36060F06060F0000006E33333E301F28
:102DC8000706366E666667000C000E0C0C0C1E00BB
:102DD800300030303033331E070666361E36670043
:102DE8000E0C0C0C0C0C1E000000337F7F6B630074
:102DF80000001F333333330000001E3333331E000B
:102E080000003B66663E060F00006E33333E3078A6
:102E180000003B6E66060F0000003E031E301F00D8
:102E2800080C3E0C0C2C18000000333333336E00B2
:102E380000003333331E0C000000636B7F7F3600C5
:102E4800000063361C36630000003333333E301F06
:102E580000003F190C263F00380C0C070C0C3800FA
:102E68001818180018181800070C0C380C0C070054
:102E78006E3B0000000000000000000000000000A1
:0C2E88000024F400100000000100000015
:040000050800136973
:00000001FF
