:020000040800F2
:10000000002800205D1400081112000817120008D3
:100010001D12000823120008291200080000000029
:100020000000000000000000000000002F12000887
:100030003B1200080000000047120008531200089D
:10004000A5140008A5140008A5140008A5140008AC
:10005000A5140008A5140008A5140008A51400089C
:10006000A5140008A5140008A5140008A51400088C
:10007000A5140008A5140008A5140008A51400087C
:10008000A5140008A5140008A5140008A51400086C
:10009000A5140008A5140008A5140008A51400085C
:1000A000A5140008A5140008A5140008A51400084C
:1000B00061120008A514000800000000A514000843
:1000C000A51400080000000000000000A5140008AE
:1000D00000000000A5140008A5140008000000009E
:1000E000A5140008A5140008A514000800000000CD
:1000F0000000000000000000000000000000000000
:0C01000000000000000000005FF808F1A3
:10010C0010B5054C237833B9044B13B10448AFF345
:10011C0000800123237010BD24000020000000008B
:10012C00FC2A000808B5034B1BB103490348AFF385
:10013C00008008BD0000000028000020FC2A0008F8
:10014C0080B500AFB44B1B780D2B00F22E8201A2B0
:10015C0052F823F0990100082302000883020008DA
:10016C00E302000865030008C5030008B705000892
:10017C00B7050008B7050008B7050008B705000863
:10018C003505000841040008C5040008A34B1A6893
:10019C00A34B1B681A44A34B1B689A421CD900F052
:1001AC00D5FD00F0A1FE00F0EFFC00F0E1FA0346F3
:1001BC00002B00F0FC81984B0B221A709A4B1B6899
:1001CC001946022000F05CFEFA2001F0B3F800F0B2
:1001DC0005FB00F0DFFAEAE1914B1B68184601F0D1
:1001EC0049F8904B1B68184601F05CF88C4B1B6867
:1001FC00184600F075FC8B4B1B68184600F09AFCF7
:10020C00FA2001F067F84FF47A7001F07BF8824B1A
:10021C0001221A70DCE100F0F3FA00F049FB00F067
:10022C00B3FC00F059FD814B1B68012B0CD17B4BAF
:10023C001B68184601F01EF8784B1B68184600F036
:10024C004FFC754B02221A7000F092FA0346002BF9
:10025C0000F0AF81704B0B221A70734B1B68194660
:10026C00022000F00DFEFA2001F064F800F092FA82
:10027C0000F0B4FA9DE100F0EFFA00F019FB00F089
:10028C0083FC00F029FD694B1B68012B0CD1654BDD
:10029C001B68184600F0EEFF624B1B68184600F016
:1002AC001FFC5D4B03221A7000F062FA0346002B10
:1002BC0000F08181584B0B221A705B4B1B6819465E
:1002CC00022000F0DDFDFA2001F034F800F062FAB3
:1002DC0000F084FA6FE100F0A9FA00F0E9FA00F0FE
:1002EC0053FC00F0F9FC514B1B68012B0CD14C4B0F
:1002FC001B68184600F0BEFF494B1B68184600F0FF
:10030C00EFFB454B01221A70494B1B68012B0CD19A
:10031C00434B1B68184600F0C5FF414B1B68184641
:10032C0000F008FC3C4B04221A7000F021FA034642
:10033C00002B00F04281384B0B221A703A4B1B6891
:10034C001946022000F09CFDFA2000F0F3FF00F0AB
:10035C0021FA00F043FA30E100F068FA00F092FA6A
:10036C0000F012FC00F0B8FC314B1B68012B0CD1D7
:10037C002A4B1B68184600F095FF284B1B68184643
:10038C0000F0D8FB244B05221A7000F0F1F903465B
:10039C00002B00F01481204B0B221A70224B1B688F
:1003AC001946022000F06CFDFA2000F0C3FF00F0AB
:1003BC00F1F900F013FA02E100F038FA00F08EFACD
:1003CC0000F0E2FB00F088FC194B1B68012B0CD1F0
:1003DC00144B1B68184600F065FF124B1B6818463F
:1003EC0000F0A8FB0C4B03221A7000F0C1F9034675
:1003FC00002B00F0E680084B0B221A700A4B1B688E
:10040C001946022000F03CFDFA2000F093FF00F0AA
:10041C00C1F900F0E3F9D4E0460000200800002008
:10042C0004000020000000200C00002068000020C8
:10043C007000002000F0F8FC00F0A6FB00F0AAF918
:10044C000346002B04D100F0B7F90346002B13D060
:10045C00604B1A68604BA3FB02131B0C5F4901FB3A
:10046C0003F3D31A03F57A735A4A1360594B1B687A
:10047C001946032000F004FD00F0B0F90346002BF0
:10048C0003D0544B1B68564A136000F071F90346B5
:10049C00002B00F09880534B0D221A70524B1B68A6
:1004AC001946042000F0ECFCFA2000F043FF00F0A9
:1004BC0071F900F093F986E000F08AFC00F064FB1F
:1004CC0000F068F90346002B04D100F075F90346DF
:1004DC00002B13D0444B1A683F4BA3FB02131B0C8D
:1004EC003E4901FB03F3D31A03F57A733E4A1360BA
:1004FC003D4B1B681946042000F0C2FC00F06EF95D
:10050C000346002B03D0384B1B68384A136000F0AD
:10051C002FF90346002B58D0324B00221A7000F0F2
:10052C0039F900F05BF950E000F026FC00F02CFBF0
:10053C0000F030F90346002B04D100F03DF90346DE
:10054C00002B13D02A4B1A68234BA3FB02131B0C52
:10055C00224901FB03F3D31A03F57A73244A13607F
:10056C00234B1B681946022000F08AFC00F036F978
:10057C000346002B03D01E4B1B681E4A136000F071
:10058C00F7F80346002B22D0164B0C221A70114B95
:10059C001B681946032000F073FCFA2000F0CAFE19
:1005AC0000F0F8F800F01AF911E000BF10E000BFFD
:1005BC000EE000BF0CE000BF0AE000BF08E000BF87
:1005CC0006E000BF04E000BF02E000BF00E000BF97
:1005DC0000BF80BD140000200F8277A9B8820100F3
:1005EC00080000204600002010000020040000201D
:1005FC000C0000200000002080B582B000AF00236A
:10060C007B609BE0524A7B6813441978514A7B68A3
:10061C0013440A461A70504A7B68134419784C4AA2
:10062C007B6813440A461A707B68002B0CD14FF47C
:10063C0000514A4801F01CFA03461946464A7B68A9
:10064C0013440A461A701EE07B68012B0CD14FF440
:10065C008041424801F00CFA034619463E4A7B6839
:10066C0013440A461A700EE07B68022B0BD14FF430
:10067C0000413A4801F0FCF903461946364A7B68BA
:10068C0013440A461A70344A7B6813441A7830496A
:10069C007B680B441B789A424DD12D4A7B681344DE
:1006AC001A782C497B680B441B789A4243D12C4A0C
:1006BC007B6813441A7827497B680B441B789A4251
:1006CC0019D0244A7B6813441978254A7B68134453
:1006DC000A461A70224A7B6813441B78002B2AD1D5
:1006EC00204A7B68134401221A701F4A7B686421DC
:1006FC0022F813101FE01C4A7B6832F81330013BC0
:10070C0099B2194A7B6822F81310174A7B6832F8A1
:10071C001330002B0FD1124A7B6813441B78002B2B
:10072C0004D1124A7B68134401221A700E4A7B686A
:10073C00642122F813107B6801337B607B68022BE9
:10074C007FF760AF00BF00BF0837BD4680BD00BF5C
:10075C0050000020540000204C00002000100140EC
:10076C00480000205C0000206000002058000020A1
:10077C0080B400AF064B1B78012B04D1044B002234
:10078C001A70012300E000231846BD4680BC704758
:10079C005C00002080B400AF064B5B78012B04D1C9
:1007AC00044B00225A70012300E000231846BD467A
:1007BC0080BC70475C00002080B400AF064B5B78B7
:1007CC00012B04D1044B00225A70012300E00023BA
:1007DC001846BD4680BC70475800002080B400AF5E
:1007EC00064B9B78012B04D1044B00229A700123F9
:1007FC0000E000231846BD4680BC70475C0000201A
:10080C0080B500AF00221021074801F048F9012201
:10081C002021054801F043F901220821024801F08A
:10082C003EF900BF80BD00BF000C014080B500AF99
:10083C0001221021074801F032F90122202105483C
:10084C0001F02DF900220821024801F028F900BF1F
:10085C0080BD00BF000C014080B500AF012210210B
:10086C00074801F01CF900222021054801F017F976
:10087C0001220821024801F012F900BF80BD00BF1F
:10088C00000C014080B500AF00228021074801F028
:10089C0006F901224FF48071044801F000F901229D
:1008AC004021024801F0FBF800BF80BD000C014064
:1008BC0080B500AF01228021074801F0F0F8012239
:1008CC004FF48071044801F0EAF8002240210248FC
:1008DC0001F0E5F800BF80BD000C014080B500AF11
:1008EC0001228021074801F0DAF800224FF48071D0
:1008FC00044801F0D4F801224021024801F0CFF85D
:10090C0000BF80BD000C014080B582B000AF7860A4
:10091C007B68002B14D07B68022B11D07B68032BD7
:10092C000ED07B68052B0BD07B68062B08D07B6820
:10093C00072B05D07B68082B02D07B68092B05D1CF
:10094C0000220121654801F0AAF804E001220121EE
:10095C00624801F0A4F87B68002B14D07B68012B53
:10096C0011D07B68022B0ED07B68032B0BD07B68DD
:10097C00042B08D07B68072B05D07B68082B02D092
:10098C007B68092B05D100220221544801F087F81D
:10099C0004E001220221514801F081F87B68002B10
:1009AC0017D07B68012B14D07B68032B11D07B688C
:1009BC00042B0ED07B68052B0BD07B68062B08D044
:1009CC007B68072B05D07B68082B02D07B68092B32
:1009DC0005D100220421414801F061F804E0012214
:1009EC0004213E4801F05BF87B68002B11D07B683A
:1009FC00022B0ED07B68032B0BD07B68052B08D009
:100A0C007B68062B05D07B68082B02D07B68092BF2
:100A1C0005D100220821314801F041F804E00122FF
:100A2C0008212E4801F03BF87B68002B08D07B682E
:100A3C00022B05D07B68062B02D07B68082B05D1D6
:100A4C0000221021254801F02AF804E0012210218F
:100A5C00224801F024F87B68002B0ED07B68042B15
:100A6C000BD07B68052B08D07B68062B05D07B68E8
:100A7C00082B02D07B68092B05D1002220211748B6
:100A8C0001F00DF804E001222021144801F007F8D0
:100A9C007B68022B11D07B68032B0ED07B68042B58
:100AAC000BD07B68052B08D07B68062B05D07B68A8
:100ABC00082B02D07B68092B05D100224021074866
:100ACC0000F0EDFF05E001224021044800F0E7FFB3
:100ADC0000BF00BF0837BD4680BD00BF0008014005
:100AEC0080B485B000AF78607B680F4AA2FB03230B
:100AFC009B09FB60FB680D4AA2FB0323DB08DAB2FF
:100B0C000B4B1A70F968094BA3FB0123DA08134647
:100B1C009B0013445B00CA1AD2B2054B5A7000BF3B
:100B2C001437BD4680BC7047D34D6210CDCCCCCCB5
:100B3C004000002080B485B000AF78607B680F4A1D
:100B4C00A2FB03239B09FB60FB680D4AA2FB03235A
:100B5C00DB08DAB20B4B1A70F968094BA3FB0123C3
:100B6C00DA0813469B0013445B00CA1AD2B2054B39
:100B7C005A7000BF1437BD4680BC7047D34D62100D
:100B8C00CDCCCCCC4400002080B500AF4D4B1B68C5
:100B9C00012B0FD14C4B1B7801335A4203F003034A
:100BAC0002F0030258BF5342DAB2474B1A70FA20D4
:100BBC0000F090FB444B1B78032B7FD801A252F81A
:100BCC0023F000BFE10B00081B0C0008550C0008BB
:100BDC008F0C00083D4B1B781846FFF795FE002242
:100BEC0080213B4800F05BFF01224FF480713848B4
:100BFC0000F055FF01224FF40071354800F04FFF13
:100C0C0001224FF48061324800F049FF57E02F4B2E
:100C1C005B781846FFF778FE012280212C4800F003
:100C2C003EFF00224FF48071294800F038FF01226A
:100C3C004FF40071264800F032FF01224FF480611E
:100C4C00234800F02CFF3AE0224B1B781846FFF7A4
:100C5C005BFE012280211E4800F021FF01224FF48F
:100C6C0080711B4800F01BFF00224FF400711848E4
:100C7C0000F015FF01224FF48061154800F00FFFC2
:100C8C001DE0144B5B781846FFF73EFE01228021D5
:100C9C000F4800F004FF01224FF480710C4800F063
:100CAC00FEFE01224FF40071094800F0F8FE00220C
:100CBC004FF48061064800F0F2FE00E000BF00BF78
:100CCC0080BD00BF780000204700002040000020BD
:100CDC00000801404400002080B500AF184B1B6891
:100CEC00012B2BD14FF47A7000F00CFB154B5B7879
:100CFC00002B09D1134B09225A70124B1B78013B64
:100D0C00DAB2104B1A7005E00E4B5B78013BDAB28D
:100D1C000C4B5A700C4B5B78002B09D10A4B0922F7
:100D2C005A70094B1B78013BDAB2074B1A7005E07D
:100D3C00054B5B78013BDAB2034B5A7000BF80BDA8
:100D4C0080000020400000204400002080B400AF50
:100D5C00074B08221A70064B08225A70054B0822C2
:100D6C001A70044B08225A7000BFBD4680BC7047F5
:100D7C00400000204400002080B500AF012210216B
:100D8C00114800F08CFE012280210F4800F087FEF4
:100D9C00012220210C4800F082FE01224FF48071C8
:100DAC00094800F07CFE094B1B68012B0AD1082175
:100DBC00054800F08CFE4021034800F088FEFA2024
:100DCC0000F0B8FA00BF80BD000C01408800002084
:100DDC0080B500AF01220821114800F060FE01220D
:100DEC0040210F4800F05BFE012220210C4800F04E
:100DFC0056FE01224FF48071094800F050FE094B59
:100E0C001B68012B0AD11021054800F060FE8021DF
:100E1C00034800F05CFEFA2000F08CFA00BF80BDA5
:100E2C00000C01408800002080B500AF0122102189
:100E3C00114800F034FE012280210F4800F02FFEF3
:100E4C00012208210C4800F02AFE012240210A4808
:100E5C0000F025FE094B1B68012B0BD12021064805
:100E6C0000F035FE4FF48071034800F030FEFA209C
:100E7C0000F060FA00BF80BD000C0140880000202B
:100E8C0080B485B000AF03463960FB713B68124AF1
:100E9C00A2FB03239B09FB60104B00221A700F4A24
:100EAC00FB795370FB680E4AA2FB0323DB08DAB212
:100EBC000C4B1A70F9680A4BA3FB0123DA08134692
:100ECC009B0013445B00CA1AD2B2064B5A7000BF87
:100EDC001437BD4680BC7047D34D621040000020D3
:100EEC00CDCCCCCC4400002080B500AF0022082132
:100EFC000F4800F0D4FD002210210D4800F0CFFD6A
:100F0C00002220210A4800F0CAFD00224021084896
:100F1C0000F0C5FD00228021054800F0C0FD002234
:100F2C004FF48071024800F0BAFD00BF80BD00BFD5
:100F3C00000C014080B500AF00F0B0FA00F00CF8E6
:100F4C0000F092F800F044F8024801F011FAFFF7B3
:100F5C00F7F8FCE79000002080B590B000AF07F1E7
:100F6C00180328220021184601F0BAFD3B1D00226F
:100F7C001A605A609A60DA601A610223BB6101231D
:100F8C00BB621023FB6200237B6307F11803184636
:100F9C0000F0B6FD0346002B01D000F0D7F80F236C
:100FAC007B600023BB600023FB6000233B610023BC
:100FBC007B613B1D0021184601F022F80346002BF3
:100FCC0001D000F0C3F800BF4037BD4680BD000023
:100FDC0080B586B000AF07F1080300221A605A6092
:100FEC009A60DA603B4600221A605A601D4B4FF043
:100FFC0080421A601B4B41F63F725A60194B00221B
:10100C009A60184B0922DA60164B00221A61154BB4
:10101C0000229A61134801F05BF90346002B01D0C2
:10102C0000F094F84FF48053BB6007F108031946A5
:10103C000C4801F0F1FA0346002B01D000F086F8C1
:10104C0000233B6000237B603B461946054801F0BA
:10105C00B9FC0346002B01D000F078F800BF18371C
:10106C00BD4680BD9000002080B588B000AF07F170
:10107C00100300221A605A609A60DA602F4B9B6949
:10108C002E4A43F0100393612C4B9B6903F0100321
:10109C00FB60FB68294B9B69284A43F0040393616E
:1010AC00264B9B6903F00403BB60BB68234B9B6915
:1010BC00224A43F008039361204B9B6903F0080319
:1010CC007B607B68002242F2FF711D4800F0E7FC58
:1010DC0000224FF4FC711B4800F0E1FC4FF460431C
:1010EC003B6100237B610123BB6107F110031946AF
:1010FC00154800F043FB42F2FF733B6101237B6117
:10110C000023BB610223FB6107F1100319460C4855
:10111C0000F034FB4FF4FC733B6101237B61002333
:10112C00BB610223FB6107F110031946054800F06F
:10113C0025FB00BF2037BD4680BD00BF001002401C
:10114C0000080140000C01400010014080B400AFC9
:10115C0072B600BFFEE7000080B485B000AF154B3F
:10116C009B69144A43F001039361124B9B6903F092
:10117C000103BB60BB680F4BDB690E4A43F0805325
:10118C00D3610C4BDB6903F080537B607B680A4BAB
:10119C005B68FB60FB6823F0E063FB60FB6843F07B
:1011AC008063FB60044AFB68536000BF1437BD4684
:1011BC0080BC7047001002400000014080B584B034
:1011CC0000AF78607B681B68B3F1804F13D10C4B78
:1011DC00DB690B4A43F00103D361094BDB6903F074
:1011EC000103FB60FB68002200211C2000F08FFA39
:1011FC001C2000F0A8FA00BF1037BD4680BD00BF10
:10120C000010024080B400AFFEE780B400AFFEE7F0
:10121C0080B400AFFEE780B400AFFEE780B400AF4F
:10122C00FEE780B400AF00BFBD4680BC704780B401
:10123C0000AF00BFBD4680BC704780B400AF00BF9C
:10124C00BD4680BC704780B500AF00F06DF900BFA3
:10125C0080BD000080B500AF024801F0D5F800BF9A
:10126C0080BD00BF9000002080B400AF00BFBD4621
:10127C0080BC704780B483B000AF78600A231A46F4
:10128C007B68B3FBF2F31A46044B1A60044B002242
:10129C001A6000BF0C37BD4680BC70476C00002044
:1012AC006800002080B483B000AF78600A231A462F
:1012BC007B68B3FBF2F31A46044B1A60044B002212
:1012CC001A6000BF0C37BD4680BC7047740000200C
:1012DC007000002080B483B000AF78600A231A46F7
:1012EC007B68B3FBF2F31A46044B1A60044B0022E2
:1012FC001A6000BF0C37BD4680BC70477C000020D4
:10130C007800002080B483B000AF78600A231A46BE
:10131C007B68B3FBF2F31A46044B1A60044B0022B1
:10132C001A6000BF0C37BD4680BC7047840000209B
:10133C008000002080B483B000AF78600A231A4686
:10134C007B68B3FBF2F31A46044B1A60044B002281
:10135C001A6000BF0C37BD4680BC70478C00002063
:10136C008800002080B400AF294B1B68002B0BDDDC
:10137C00274B1B68013B264A1360254B1B68002B2F
:10138C0002DC244B01221A60234B1B68002B0BDD63
:10139C00214B1B68013B204A13601F4B1B68002B21
:1013AC0002DC1E4B01221A601D4B1B68002B0BDD4F
:1013BC001B4B1B68013B1A4A1360194B1B68002B13
:1013CC0002DC184B01221A60174B1B68002B0BDD3B
:1013DC00154B1B68013B144A1360134B1B68002B05
:1013EC0002DC124B01221A60114B1B68002B0BDD27
:1013FC000F4B1B68013B0E4A13600D4B1B68002BF7
:10140C0002DC0C4B01221A6000BFBD4680BC704749
:10141C006C00002068000020740000207000002088
:10142C007C00002078000020840000208000002038
:10143C008C0000208800002080B582B000AF78605E
:10144C00FFF7DAF8FFF78EFF00BF0837BD4680BD07
:10145C000C480D490D4A002302E0D458C450043303
:10146C00C4188C42F9D30A4A0A4C002301E01360D9
:10147C000432A242FBD3FFF7F7FE01F00DFBFFF79E
:10148C0059FD704700000020240000203C2B000870
:10149C0024000020DC000020FEE7000080B500AF37
:1014AC00084B1B68074A43F010031360032000F03D
:1014BC0023F90F2000F008F8FFF74EFE0023184622
:1014CC0080BD00BF0020024080B582B000AF7860C4
:1014DC00124B1A68124B1B7819464FF47A73B3FBF4
:1014EC00F1F3B2FBF3F3184600F03BF90346002B83
:1014FC0001D001230EE07B680F2B0AD800227968FB
:10150C004FF0FF3000F003F9064A7B6813600023AC
:10151C0000E0012318460837BD4680BD18000020A6
:10152C00200000201C00002080B400AF054B1B786D
:10153C001A46054B1B681344034A136000BFBD4693
:10154C0080BC704720000020D800002080B400AF81
:10155C00024B1B681846BD4680BC7047D800002063
:10156C0080B485B000AF78607B6803F00703FB6044
:10157C000C4BDB68BB60BA684FF6FF031340BB60D3
:10158C00FB681A02BB68134343F0BF6343F4003398
:10159C00BB60044ABB68D36000BF1437BD4680BC37
:1015AC00704700BF00ED00E080B400AF044BDB6877
:1015BC001B0A03F007031846BD4680BC704700BFEA
:1015CC0000ED00E080B483B000AF0346FB7197F9E7
:1015DC000730002B0BDBFB7903F01F02064997F950
:1015EC0007305B09012000FA02F241F8232000BF0A
:1015FC000C37BD4680BC704700E100E080B483B07E
:10160C0000AF03463960FB7197F90730002B0ADBFA
:10161C003B68DAB20C4997F907301201D2B20B448D
:10162C0083F800230AE03B68DAB20849FB7903F03F
:10163C000F03043B1201D2B20B441A7600BF0C37D5
:10164C00BD4680BC704700BF00E100E000ED00E04B
:10165C0080B489B000AFF860B9607A60FB6803F0C1
:10166C000703FB61FB69C3F10703042B28BF0423A9
:10167C00BB61FB690433062B02D9FB69033B00E019
:10168C0000237B614FF0FF32BB6902FA03F3DA43AC
:10169C00BB681A407B699A404FF0FF317B6901FAB5
:1016AC0003F3D9437B680B40134318462437BD46DC
:1016BC0080BC704780B582B000AF78607B68013B1E
:1016CC00B3F1807F01D301230FE00A4A7B68013B11
:1016DC0053600F214FF0FF30FFF790FF054B0022B6
:1016EC009A60044B07221A60002318460837BD463F
:1016FC0080BD00BF10E000E080B582B000AF786024
:10170C007868FFF72DFF00BF0837BD4680BD80B558
:10171C0086B000AF0346B9607A60FB7300237B612F
:10172C00FFF742FF78617A68B9687869FFF790FF34
:10173C00024697F90F3011461846FFF75FFF00BFBE
:10174C001837BD4680BD80B582B000AF0346FB7133
:10175C0097F907301846FFF735FF00BF0837BD462D
:10176C0080BD80B582B000AF78607868FFF7A2FFCB
:10177C00034618460837BD4680BD000080B48BB0C8
:10178C0000AF7860396000237B6200233B6248E144
:10179C0001227B6A02FA03F3FB613B681B68FA695E
:1017AC001340BB61BA69FB699A4240F037813B68D0
:1017BC005B68A34A93425ED0A14A934275D8A14A72
:1017CC00934258D09F4A93426FD89F4A934252D02B
:1017DC009D4A934269D89D4A93424CD09B4A93426E
:1017EC0063D89B4A934246D0994A93425DD8122BB8
:1017FC002AD8122B59D801A252F823F083180008CA
:10180C005D1800086F180008B1180008B718000818
:10181C00B7180008B7180008B7180008B718000860
:10182C00B7180008B7180008B7180008B718000850
:10183C00B7180008B7180008B7180008B718000840
:10184C006518000879180008824A934213D02CE0DE
:10185C003B68DB683B6229E03B68DB6804333B6236
:10186C0024E03B68DB6808333B621FE03B68DB68C5
:10187C000C333B621AE03B689B68002B02D10423BB
:10188C003B6213E03B689B68012B05D108233B624C
:10189C007B68FA691A6109E008233B627B68FA6984
:1018AC005A6103E000233B6200E000BFBB69FF2BE1
:1018BC0001D87B6801E07B6804337B61BB69FF2B3B
:1018CC0002D87B6A9B0002E07B6A083B9B003B6171
:1018DC007B691A680F213B6901FA03F3DB431A4059
:1018EC00396A3B6901FA03F31A437B691A603B6856
:1018FC005B6803F08053002B00F09080564B9B6983
:10190C00554A43F001039361534B9B6903F0010368
:10191C00BB60BB68514A7B6A9B08023352F8233088
:10192C00FB607B6A03F003039B000F2202FA03F3B4
:10193C00DB43FA681340FB607B68494A93420DD045
:10194C007B68484A934207D07B68474A934201D14F
:10195C00022304E0032302E0012300E000237A6A5F
:10196C0002F0030292009340FA681343FB603B4978
:10197C007B6A9B080233FA6841F823203B685B685A
:10198C0003F48033002B06D0384B1A683749BB69F7
:10199C0013430B6006E0354B1A68BB69DB433349D4
:1019AC0013400B603B685B6803F40033002B06D0DC
:1019BC002E4B5A682D49BB6913434B6006E02B4BE9
:1019CC005A68BB69DB43294913404B603B685B6831
:1019DC0003F48013002B06D0244B9A682349BB696F
:1019EC0013438B6006E0214B9A68BB69DB431F49AC
:1019FC0013408B603B685B6803F40013002B06D02C
:101A0C001A4BDA681949BB691343CB6006E0174BD4
:101A1C00DA68BB69DB4315491340CB607B6A013341
:101A2C007B623B681A687B6A22FA03F3002B7FF413
:101A3C00AFAE00BF00BF2C37BD4680BC704700BFA7
:101A4C0000003210000031100000221000002110A4
:101A5C0000001210000011100010024000000140A4
:101A6C0000080140000C014000100140000401403E
:101A7C0080B485B000AF78600B467B807B689A6839
:101A8C007B881340002B02D00123FB7301E0002361
:101A9C00FB73FB7B18461437BD4680BC704780B483
:101AAC0083B000AF78600B467B8013467B707B78ED
:101ABC00002B03D07A887B681A6103E07B881A04B8
:101ACC007B681A6100BF0C37BD4680BC704780B480
:101ADC0085B000AF78600B467B807B68DB68FB6071
:101AEC007A88FB6813401A04FB68D9437B880B4047
:101AFC001A437B681A6100BF1437BD4680BC70471F
:101B0C0080B586B000AF78607B68002B01D10123D3
:101B1C006CE27B681B6803F00103002B00F08780EC
:101B2C00924B5B6803F00C03042B0CD08F4B5B685F
:101B3C0003F00C03082B12D18C4B5B6803F480333D
:101B4C00B3F5803F0BD1894B1B6803F40033002B9A
:101B5C006CD07B685B68002B68D1012346E27B6804
:101B6C005B68B3F5803F06D1804B1B687F4A43F41A
:101B7C00803313602EE07B685B68002B0CD17B4BB1
:101B8C001B687A4A23F480331360784B1B68774ABE
:101B9C0023F4802313601DE07B685B68B3F5A02FF2
:101BAC000CD1724B1B68714A43F4802313606F4B4A
:101BBC001B686E4A43F4803313600BE06B4B1B685D
:101BCC006A4A23F480331360684B1B68674A23F41A
:101BDC00802313607B685B68002B13D0FFF7B6FC87
:101BEC00386108E0FFF7B2FC02463B69D31A642B5C
:101BFC0001D90323FAE15D4B1B6803F40033002B7E
:101C0C00F0D014E0FFF7A2FC386108E0FFF79EFC6F
:101C1C0002463B69D31A642B01D90323E6E1534BEB
:101C2C001B6803F40033002BF0D100E000BF7B688D
:101C3C001B6803F00203002B63D04C4B5B6803F072
:101C4C000C03002B0BD0494B5B6803F00C03082BE7
:101C5C001CD1464B5B6803F48033002B16D1434BED
:101C6C001B6803F00203002B05D07B681B69012B5A
:101C7C0001D00123BAE13D4B1B6823F0F8027B68CD
:101C8C005B69DB00394913430B603AE07B681B69E5
:101C9C00002B20D0364B01221A60FFF757FC38611D
:101CAC0008E0FFF753FC02463B69D31A022B01D91B
:101CBC0003239BE12D4B1B6803F00203002BF0D098
:101CCC002A4B1B6823F0F8027B685B69DB00274911
:101CDC0013430B6015E0264B00221A60FFF736FC0D
:101CEC00386108E0FFF732FC02463B69D31A022B3D
:101CFC0001D903237AE11D4B1B6803F00203002B6F
:101D0C00F0D17B681B6803F00803002B3AD07B688A
:101D1C009B69002B19D0174B01221A60FFF716FC98
:101D2C00386108E0FFF712FC02463B69D31A022B1C
:101D3C0001D903235AE10D4B5B6A03F00203002B1C
:101D4C00F0D0012000F0A6FA1CE00A4B00221A6029
:101D5C00FFF7FCFB38610FE0FFF7F8FB02463B692D
:101D6C00D31A022B08D9032340E100BF0010024014
:101D7C0000004242800442429E4B5B6A03F0020325
:101D8C00002BE9D17B681B6803F00403002B00F0E7
:101D9C00A6800023FB75974BDB6903F08053002B67
:101DAC000DD1944BDB69934A43F08053D361914B33
:101DBC00DB6903F08053BB60BB680123FB758E4B62
:101DCC001B6803F48073002B18D18B4B1B688A4A59
:101DDC0043F480731360FFF7B9FB386108E0FFF739
:101DEC00B5FB02463B69D31A642B01D90323FDE0F2
:101DFC00814B1B6803F48073002BF0D07B68DB688D
:101E0C00012B06D17B4B1B6A7A4A43F00103136208
:101E1C002DE07B68DB68002B0CD1764B1B6A754A76
:101E2C0023F001031362734B1B6A724A23F0040301
:101E3C0013621CE07B68DB68052B0CD16D4B1B6AB5
:101E4C006C4A43F0040313626A4B1B6A694A43F001
:101E5C00010313620BE0674B1B6A664A23F0010314
:101E6C001362644B1B6A634A23F0040313627B689E
:101E7C00DB68002B15D0FFF769FB38610AE0FFF730
:101E8C0065FB02463B69D31A41F28832934201D971
:101E9C000323ABE0574B1B6A03F00203002BEED07D
:101EAC0014E0FFF753FB38610AE0FFF74FFB0246E3
:101EBC003B69D31A41F28832934201D9032395E04E
:101ECC004C4B1B6A03F00203002BEED1FB7D012B64
:101EDC0005D1484BDB69474A23F08053D3617B68BB
:101EEC00DB69002B00F08180424B5B6803F00C0334
:101EFC00082B61D07B68DB69022B46D13F4B00225B
:101F0C001A60FFF723FB386108E0FFF71FFB02465E
:101F1C003B69D31A022B01D9032367E0354B1B68AD
:101F2C0003F00073002BF0D17B681B6AB3F5803F84
:101F3C0008D1304B5B6823F400327B689B682D49D9
:101F4C0013434B602B4B5B6823F474127B68196A48
:101F5C007B685B6A0B43274913434B60274B012279
:101F6C001A60FFF7F3FA386108E0FFF7EFFA024660
:101F7C003B69D31A022B01D9032337E01D4B1B6895
:101F8C0003F00073002BF0D02FE01C4B00221A60E2
:101F9C00FFF7DCFA386108E0FFF7D8FA02463B6934
:101FAC00D31A022B01D9032320E0124B1B6803F038
:101FBC000073002BF0D118E07B68DB69012B01D199
:101FCC00012313E00B4B5B68FB60FB6803F480326E
:101FDC007B681B6A9A4206D1FB6803F470127B681B
:101FEC005B6A9A4201D0012300E00023184618379F
:101FFC00BD4680BD001002400070004060004242AF
:10200C0080B584B000AF786039607B68002B01D15B
:10201C000123D0E06A4B1B6803F007033A689A422D
:10202C0010D9674B1B6823F0070265493B681343C3
:10203C000B60634B1B6803F007033A689A4201D0AC
:10204C000123B8E07B681B6803F00203002B20D04F
:10205C007B681B6803F00403002B05D0594B5B68AD
:10206C00584A43F4E06353607B681B6803F0080331
:10207C00002B05D0534B5B68524A43F460535360BA
:10208C00504B5B6823F0F0027B689B684D4913430F
:10209C004B607B681B6803F00103002B40D07B680E
:1020AC005B68012B07D1474B1B6803F40033002BF3
:1020BC0015D101237FE07B685B68022B07D1414B74
:1020CC001B6803F00073002B09D1012373E03D4B17
:1020DC001B6803F00203002B01D101236BE0394B89
:1020EC005B6823F003027B685B68364913434B60E3
:1020FC00FFF72CFAF8600AE0FFF728FA0246FB68B3
:10210C00D31A41F28832934201D9032353E02D4B69
:10211C005B6803F00C027B685B689B009A42EBD116
:10212C00274B1B6803F007033A689A4210D2244BE2
:10213C001B6823F0070222493B6813430B60204BBA
:10214C001B6803F007033A689A4201D0012332E07E
:10215C007B681B6803F00403002B08D0194B5B68E9
:10216C0023F4E0627B68DB68164913434B607B68A1
:10217C001B6803F00803002B09D0124B5B6823F497
:10218C0060527B681B69DB000E4913434B6000F007
:10219C0021F802460B4B5B681B0903F00F030A493D
:1021AC00CB5C22FA03F3094A1360094B1B681846EF
:1021BC00FFF78AF9002318461037BD4680BD00BFD3
:1021CC000020024000100240242B000818000020C0
:1021DC001C00002090B48AB000AF2A4B3C1D0FCBE2
:1021EC0084E80F0040F201233B800023FB610023B5
:1021FC00BB6100237B6200237B6100233B62224B8B
:10220C005B68FB61FB6903F00C03042B02D0082B09
:10221C0003D02DE01D4B3B622DE0FB699B0C03F0C2
:10222C000F0307F12802134413F8243C7B61FB696C
:10223C0003F48033002B13D0134B5B685B0C03F05F
:10224C00010307F12802134413F8283CBB617B6996
:10225C000E4A02FB03F2BB69B2FBF3F37B6204E0B0
:10226C007B690B4A02FB03F37B627B6A3B6202E0F5
:10227C00064B3B6200BF3B6A18462837BD4690BCF4
:10228C00704700BF142B00080010024000127A00A7
:10229C0000093D0080B485B000AF78600A4B1B6824
:1022AC000A4AA2FB03235B0A7A6802FB03F3FB6076
:1022BC0000BFFB685A1EFA60002BF9D100BF00BFAB
:1022CC001437BD4680BC704718000020D34D6210F7
:1022DC0080B582B000AF78607B68002B01D1012300
:1022EC0041E07B6893F83D30DBB2002B06D17B6874
:1022FC00002283F83C207868FEF760FF7B6802229E
:10230C0083F83D207B681A687B68043319461046B5
:10231C0000F06AFA7B68012283F846207B68012270
:10232C0083F83E207B68012283F83F207B680122E2
:10233C0083F840207B68012283F841207B680122CE
:10234C0083F842207B68012283F843207B680122BA
:10235C0083F844207B68012283F845207B680122A6
:10236C0083F83D20002318460837BD4680BD000089
:10237C0080B485B000AF78607B6893F83D30DBB2F9
:10238C00012B01D0012335E07B68022283F83D202C
:10239C007B681B68DA687B681B6842F00102DA60B4
:1023AC007B681B68164A934209D07B681B68B3F1A3
:1023BC00804F04D07B681B68124A934211D17B6812
:1023CC001B689B6803F00703FB60FB68062B10D0AF
:1023DC007B681B681A687B681B6842F001021A60F4
:1023EC0007E07B681B681A687B681B6842F0010277
:1023FC001A60002318461437BD4680BC704700BFD6
:10240C00002C01400004004080B582B000AF786021
:10241C007B681B681B6903F00203022B22D17B68CB
:10242C001B68DB6803F00203022B1BD17B681B6863
:10243C006FF002021A617B6801221A777B681B68B5
:10244C009B6903F00303002B03D0786800F0B1F90B
:10245C0005E0786800F0A4F9786800F0B3F97B68BF
:10246C0000221A777B681B681B6903F00403042B9A
:10247C0022D17B681B68DB6803F00403042B1BD19F
:10248C007B681B686FF004021A617B6802221A7762
:10249C007B681B689B6903F44073002B03D078683E
:1024AC0000F087F905E0786800F07AF9786800F0B8
:1024BC0089F97B6800221A777B681B681B6903F01B
:1024CC000803082B22D17B681B68DB6803F0080328
:1024DC00082B1BD17B681B686FF008021A617B68A4
:1024EC0004221A777B681B68DB6903F00303002B5B
:1024FC0003D0786800F05DF905E0786800F050F9D9
:10250C00786800F05FF97B6800221A777B681B689B
:10251C001B6903F01003102B22D17B681B68DB684E
:10252C0003F01003102B1BD17B681B686FF010029B
:10253C001A617B6808221A777B681B68DB6903F4D5
:10254C004073002B03D0786800F033F905E078680D
:10255C0000F026F9786800F035F97B6800221A77CC
:10256C007B681B681B6903F00103012B0ED17B6890
:10257C001B68DB6803F00103012B07D17B681B6828
:10258C006FF001021A617868FEF756FF7B681B68D2
:10259C001B6903F08003802B0ED17B681B68DB6802
:1025AC0003F08003802B07D17B681B686FF08002DF
:1025BC001A61786800F067FA7B681B681B6903F086
:1025CC004003402B0ED17B681B68DB6803F0400393
:1025DC00402B07D17B681B686FF040021A6178684A
:1025EC0000F0F9F87B681B681B6903F02003202BB3
:1025FC000ED17B681B68DB6803F02003202B07D10E
:10260C007B681B686FF020021A61786800F032FA60
:10261C0000BF0837BD4680BD80B584B000AF786080
:10262C0039607B6893F83C30012B01D10223B3E075
:10263C007B68012283F83C207B68022283F83D20D2
:10264C007B681B689B68FB60FB6823F07703FB606F
:10265C00FB6823F47F43FB607B681B68FA689A6015
:10266C003B681B68B3F5005F3ED0B3F5005F00F22A
:10267C008780B3F5805F00F08580B3F5805F7FD8ED
:10268C00702B1AD0702B7BD8602B50D0602B77D846
:10269C00502B3CD0502B73D8402B58D0402B6FD89C
:1026AC00302B64D0302B6BD8202B60D0202B67D8EC
:1026BC00002B5CD0102B5AD062E07B6818683B680A
:1026CC0099683B685A683B68DB6800F05CF97B688A
:1026DC001B689B68FB60FB6843F07703FB607B68BF
:1026EC001B68FA689A604EE07B6818683B689968CA
:1026FC003B685A683B68DB6800F045F97B681B68EF
:10270C009A687B681B6842F480429A603BE07B6865
:10271C0018683B6859683B68DB681A4600F0BCF8DF
:10272C007B681B685021184600F013F92BE07B687E
:10273C0018683B6859683B68DB681A4600F0DAF8A1
:10274C007B681B686021184600F003F91BE07B686E
:10275C0018683B6859683B68DB681A4600F09CF8BF
:10276C007B681B684021184600F0F3F80BE07B688F
:10277C001A683B681B681946104600F0EAF802E03C
:10278C0000BF00E000BF7B68012283F83D207B681E
:10279C00002283F83C20002318461037BD4680BD2C
:1027AC0080B483B000AF786000BF0C37BD4680BCEE
:1027BC00704780B483B000AF786000BF0C37BD4663
:1027CC0080BC704780B483B000AF786000BF0C371A
:1027DC00BD4680BC704780B483B000AF786000BF4A
:1027EC000C37BD4680BC704780B485B000AF7860B4
:1027FC0039607B681B68FB607B68254A934207D075
:10280C007B68B3F1804F03D07B68224A934208D196
:10281C00FB6823F07003FB603B685B68FA6813434A
:10282C00FB607B681A4A934207D07B68B3F1804FF8
:10283C0003D07B68174A934208D1FB6823F440739A
:10284C00FB603B68DB68FA681343FB60FB6823F0B2
:10285C0080023B685B691343FB607B68FA681A6013
:10286C003B689A687B68DA623B681A687B689A6294
:10287C007B68074A934203D13B681A697B681A63E9
:10288C007B6801225A6100BF1437BD4680BC70477B
:10289C00002C01400004004080B487B000AFF86009
:1028AC00B9607A60FB681B6A7B61FB681B6A23F06A
:1028BC000102FB681A62FB689B693B613B6923F070
:1028CC00F0033B617B681B013A6913433B617B69F5
:1028DC0023F00A037B617A69BB6813437B61FB6855
:1028EC003A699A61FB687A691A6200BF1C37BD4667
:1028FC0080BC704780B487B000AFF860B9607A6074
:10290C00FB681B6A23F01002FB681A62FB689B6968
:10291C007B61FB681B6A3B617B6923F470437B61C1
:10292C007B681B037A6913437B613B6923F0A0032B
:10293C003B61BB681B013A6913433B61FB687A69D5
:10294C009A61FB683A691A6200BF1C37BD4680BCAD
:10295C00704780B485B000AF786039607B689B6845
:10296C00FB60FB6823F07003FB603A68FB68134361
:10297C0043F00703FB607B68FA689A6000BF14376A
:10298C00BD4680BC704780B487B000AFF860B960BA
:10299C007A603B60FB689B687B617B6923F47F43B7
:1029AC007B613B681A027B681A43BB6813437A69E4
:1029BC0013437B61FB687A699A6000BF1C37BD4684
:1029CC0080BC704780B485B000AF786039607B689C
:1029DC0093F83C30012B01D1022341E07B680122AA
:1029EC0083F83C207B68022283F83D207B681B68BF
:1029FC005B68FB607B681B689B68BB60FB6823F0B3
:102A0C007003FB603B681B68FA681343FB607B68D0
:102A1C001B68FA685A607B681B68144A934209D099
:102A2C007B681B68B3F1804F04D07B681B68104A2D
:102A3C0093420CD1BB6823F08003BB603B685B689E
:102A4C00BA681343BB607B681B68BA689A607B6882
:102A5C00012283F83D207B68002283F83C20002370
:102A6C0018461437BD4680BC704700BF002C01408F
:102A7C000004004080B483B000AF786000BF0C3716
:102A8C00BD4680BC704780B483B000AF786000BF97
:102A9C000C37BD4680BC704770B500260C4D0D4CF4
:102AAC00641BA410A64209D100F022F800260A4D9E
:102ABC000A4C641BA410A64205D170BD55F8043B0A
:102ACC0098470136EEE755F8043B98470136F2E794
:102ADC00342B0008342B0008342B0008382B00084A
:102AEC0003460244934200D1704703F8011BF9E7F7
:102AFC00F8B500BFF8BC08BC9E467047F8B500BFDF
:082B0C00F8BC08BC9E467047AE
:102B140002030405060708090A0B0C0D0E0F10101A
:102B24000000000000000000010203040607080979
:042B34003101000863
:042B38000D01000883
:102B3C0010270000581B0000B80B0000E803000031
:102B4C00E8030000E80300000024F400100000007B
:042B5C000100000074
:040000050800145D7E
:00000001FF
